:1000000000308A00542900000A108A100A11820761
:1000100028340C34013406340A108A100A1182077D
:1000200041344E3430343D34253430343334753437
:100030002D3441344E3431343D342534303433346E
:1000400075340034273084008313000803193528E1
:100050000630F800F701F70B2B28F80B2A287B3025
:10006000F700F70B3128800B282800342E183A2887
:1000700008123B280816831608128312AE1842286D
:100080008812432888168316881283122E194A284C
:1000900008134B280817831608138312AE19522829
:1000A0008813532888178316881300008811831239
:1000B00088150330F700F70B5B288316881183122D
:1000C0008811003483160811831208116330F70079
:1000D000F70B68286B28AB080319732883160811DF
:1000E000831208157728831608118312081100005F
:1000F00083168811831288112C0EAD000F30AD05C8
:100100002D08AE0036202C080F39AD00AE00362089
:100110000034831608118312081183168811831284
:1001200088110F30A7002220A2012208023C031CE4
:10013000A1280330AE0036200530A7002220A20AF5
:1001400095280230AE003620A2012208033C031C91
:10015000B52822080420A300AB012308AC006220CC
:100160000530A7002220A20AA5288A110A126E29AA
:10017000220DF700F70DF70DF830F7051F08C73906
:1001800077049F002130F700F70BC4281F151F19B3
:10019000C7281E08A3001030F700F70BCD28000079
:1001A0002308F8000034280BD628D9284030A900AD
:1001B000DA28A90101302702A90729088038AA00F6
:1001C000AB012A08AC006220003426080C3A03195F
:1001D000F028063A0319F828023A0319FE280329E1
:1001E000AB010130AC0062200230A70022200929B7
:1001F0000130A7000230A800D3200929AB0110303C
:10020000AC00622009290130AB002608AC00622056
:10021000092900342708F8012602031812292608A4
:10022000F7001E29F7010830A800A60DF70D2708D2
:1002300077020318F700F80DA80B15290034780889
:100240002408A6006430A7000A217708A4007808D3
:100250003030031D3229A51C3929A5193929251A41
:1002600020303529A51125122514F8077808A60095
:10027000E5202408A6000A30A7000A217708A40078
:1002800078083030031D4A29A5194E29251C4E290E
:10029000251A2030F8077808A600E5203030A4079A
:1002A0002408A600E5200034840183131F30830551
:1002B00083161F149F141F159F1107309C001F13D6
:1002C00083121F179F1783169F1383121F14831601
:1002D0001F109F101F119F1183128928A201B8209F
:1002E0007808A0000130A200B8207808A1000130F1
:1002F000A700A800D320A20122080C20A20AF70020
:10030000A600E52004302202031D7C292008A40059
:100310000330A5001F210830A30023080C20A30AE6
:10032000F700A600E5200D302302031D8D292108CA
:0C033000A4000330A5001F216E2963000B
:02400E00723FFF
:00000001FF
;PIC16F877A
